{
  "contractName": "HelloWorld",
  "abi": [
    {
      "constant": true,
      "inputs": [],
      "name": "test",
      "outputs": [
        {
          "name": "",
          "type": "string"
        }
      ],
      "payable": false,
      "stateMutability": "pure",
      "type": "function"
    },
    {
      "constant": false,
      "inputs": [],
      "name": "test2",
      "outputs": [
        {
          "name": "",
          "type": "string"
        }
      ],
      "payable": false,
      "stateMutability": "nonpayable",
      "type": "function"
    }
  ],
  "bytecode": "0x608060405234801561001057600080fd5b50610217806100206000396000f30060806040526004361061004c576000357c0100000000000000000000000000000000000000000000000000000000900463ffffffff16806366e41cb714610051578063f8a8fd6d146100e1575b600080fd5b34801561005d57600080fd5b50610066610171565b6040518080602001828103825283818151815260200191508051906020019080838360005b838110156100a657808201518184015260208101905061008b565b50505050905090810190601f1680156100d35780820380516001836020036101000a031916815260200191505b509250505060405180910390f35b3480156100ed57600080fd5b506100f66101ae565b6040518080602001828103825283818151815260200191508051906020019080838360005b8381101561013657808201518184015260208101905061011b565b50505050905090810190601f1680156101635780820380516001836020036101000a031916815260200191505b509250505060405180910390f35b60606040805190810160405280600a81526020017f48656c6c6f576f726c6400000000000000000000000000000000000000000000815250905090565b60606040805190810160405280600a81526020017f48656c6c6f576f726c64000000000000000000000000000000000000000000008152509050905600a165627a7a72305820ca77556e9cb8be4fa0bbd7c8b09ecf271c74b591f2ad0d7a7a3b1cb94bc0c74e0029",
  "source": "pragma solidity ^0.4.23;\n\ncontract HelloWorld {\n\n    function test() public pure returns (string) {\n        return \"HelloWorld\";\n    }\n\n    function test2() public returns (string) {\n        return \"HelloWorld\";\n    }\n\n}",
  "sourcePath": "/Users/ben/Documents/source/FE_Study/区块链/Solidity/智能合约/demo1/contracts/HelloWorld.sol",
  "compiler": {
    "name": "solc",
    "version": "0.4.24+commit.e67f0147.Emscripten.clang"
  },
  "schemaVersion": "2.0.1",
  "updatedAt": "2018-08-07T06:56:33.540Z"
}